:020000040800F2
:1000000000040010B1010008E1010008E50100084A
:10001000E9010008ED010008F101000800000000FE
:10002000000000000000000000000000F5010008D2
:10003000F901000800000000FD01000801020008AD
:100040000502000805020008050200080502000874
:100050000502000805020008050200080502000864
:100060000502000805020008050200080502000854
:100070000502000805020008050200080502000844
:100080000502000805020008050200080502000834
:100090000502000805020008050200080502000824
:1000A0000502000805020008050200080502000814
:1000B0000502000805020008ED0B00080502000813
:1000C00005020008050200080502000805020008F4
:1000D00005020008750C000805020008CD0C000898
:1000E00005020008050200080502000805020008D4
:1000F00005020008050200080502000805020008C4
:1001000005020008050200080502000805020008B3
:1001100005020008050200080502000805020008A3
:100120000502000805020008050200080502000893
:100130000502000805020008050200080502000883
:100140000502000805020008050200080502000873
:100150000502000805020008050200081D0D000840
:100160000502000805020008050200080502000853
:100170000502000805020008050200080000000052
:100180000502000805020008050200080502000833
:100190000502000805020008050200080000000032
:0C01A00005020008050200080502000826
:1001B0001549164A164B03E051F8040B42F8040B9C
:1001C0009A42F9D3134A144C002301E042F8043B4D
:1001D000A242FBD31148804700F0FEF9FEE700BFC2
:1001E000FEE700BFFEE700BFFEE700BFFEE700BF7F
:1001F000FEE700BFFEE700BFFEE700BFFEE700BF6F
:10020000FEE700BFFEE70000B43400080000002055
:100210005400002054000020A80800203D290008B8
:10022000034613F8012B002AFBD1181A0138704736
:1002300001F0FF01102A2BDB10F0070F08D010F897
:10024000013B013A8B422DD010F0070F42B3F6D19B
:10025000F0B441EA012141EA014122F007047FF0B4
:1002600000070023F0E80256083C85EA010586EA0B
:10027000010685FA47F5A3FA87F586FA47F6A5FA47
:1002800087F68EB9EED1F0BC01F0FF0102F0070253
:1002900032B110F8013B013A83EA010313B1F8D1FE
:1002A0000020704701387047002D06BF35460338DF
:1002B000073815F0010F07D1013015F4807F02BF18
:1002C000013015F4C03F0130F0BC0138704700BF69
:1002D0000348044B834202D0034B03B118477047D5
:1002E0005400002054000020000000000548064B88
:1002F0001B1AD90F01EBA301491002D0034B03B124
:1003000018477047540000205400002000000000EF
:1003100010B5064C237843B9FFF7DAFF044B13B14D
:100320000448AFF300800123237010BD5400002067
:1003300000000000A031000808B5054B1BB10549BD
:100340000548AFF30080BDE80840FFF7CFBF00BF0E
:100350000000000058000020A031000802440346BD
:10036000934200D1704703F8011BF9E770477047CB
:1003700037B5002944D051F8043C0190002BA1F17D
:100380000404B8BFE41800F0DDF81E4A01981368B1
:1003900033B96360146003B0BDE8304000F0D8B8F2
:1003A000A34208D9256861198B4201BF19685B68AF
:1003B00049192160EDE71A465B680BB1A342FAD9EF
:1003C00011685518A5420BD1246821445418A34242
:1003D0001160E0D11C685B6853600C441460DAE77C
:1003E00002D90C230360D6E7256861198B4204BF4C
:1003F00019685B68636004BF491921605460CAE7EB
:1004000003B030BDB401002070B50F4C0E4621681A
:10041000054611B900F0A2F820603146284600F0E8
:100420009DF8431C03D14FF0FF34204670BDC41C1F
:1004300024F00304A042F8D0211A284600F08EF8D8
:100440000130F2D1EFE700BFB00100202DE9F84301
:10045000CD1C25F0030508350C2D38BF0C25002DCB
:10046000064601DBA94204D90C2333600020BDE815
:10047000F883334F00F066F83B681C463CBB2946C6
:100480003046FFF7C1FF431C044656D13C68A046E6
:10049000B8F1000F40D1002C49D0236841463046C6
:1004A00004EB030900F05AF8814540D121686D1A28
:1004B00029463046FFF7A8FF013038D023682B4487
:1004C00023603B685A685ABBC7F800800EE0226878
:1004D000521B1ED40B2A16D96119A342256018BFDE
:1004E0005960636808BF396062514B60304600F064
:1004F0002FF804F10B00231D20F00700C21A1CBFC7
:100500001B1AA350B3E76268A3420CBF3A605A605B
:10051000ECE723466468B1E74446D8F80480B7E7BF
:100520001A465B68A342FBD100235360DEE70C232D
:100530003360304600F00CF898E70560D6E700BF5E
:10054000B40100200148FFF711BF00BFAC0100203B
:100550000148FFF70CBF00BFAC01002038B5064CC6
:10056000002305460846236000F008F8431C02D12A
:10057000236803B12B6038BDA8010020044A054957
:100580001368002B08BF0B461844106018467047CC
:10059000B8010020A808002038B50546FFF740FE46
:1005A00083B283B1013B6C1E15FA83F5094806211D
:1005B00002F088F90028F9D014F8011F054802F06C
:1005C00079F9AC42F2D10348062102F07BF9002808
:1005D000F9D038BD004400402DE980484FF4407008
:1005E000A5B001F06BFEB24DB248B34CB34E01F072
:1005F000C5FC00F041FA00F061FFB14800F0B0F92D
:100600000FCD0FC495E80F0002AF84E80F00A4F1EE
:100610001000FFF7C1FF3846302101F011FC97E8C8
:10062000070086E807003846502101F0B3FB97E841
:100630000700A44D85E807003846882101F022FC18
:1006400097E80700A04F2B7887E807003F783278BB
:100650009E490097A4F1100002F02AFAA4F11000BC
:10066000FFF79AFF002000F085FB002800F06E8164
:100670009748FFF791FF9748974CDFF8A4B2DFF84F
:10068000A4A2DFF8A492DFF8A482012100F01EFCEE
:10069000904A9249884802F00BFA8748FFF77CFF9E
:1006A0004FF47A7000F098FA236803F57A732360A8
:1006B000337800228DF83020002B00F08180012754
:1006C000317A706800970CAB00F0BAFD002800F09A
:1006D000D7809DF830209BF8001002EA070399426A
:1006E00000F0C4807E4A7F498BF8003010A802F0E9
:1006F000DFF9394610A800F0E9FB78496E4810AAE6
:1007000002F0D6F96C48FFF747FF2B7800270897CF
:10071000ADF82470002B39D0297A686808AA01F056
:1007200051FB714B002800F09F801B7823B16F4B69
:10073000089A1B689A4225D09DF8233001936B4A92
:100740009DF822300093089B1360674B9DF8202092
:10075000674901271F700CA89DF8213002F0A8F905
:100760005F4A64490CAB10A802F0A2F9394610A800
:1007700000F0ACFB5949504810AA02F099F94E48D4
:10078000FFF70AFF297A686801F03CFB23680AFB3F
:1007900003F2B9EBF20F17D2574A08FB03F3B2EB9F
:1007A000331FFFF47DAF4B48012100F08FFB494A16
:1007B0004A49414802F07CF93F48FFF7EDFE6FE7F8
:1007C0004E48FFF7E9FEA0E73F4B1B78002B5BD0BC
:1007D0003D4B197A586801F06FFBF2EE047A20EE77
:1007E000270AB0EE608AFDEEC07A17EE903A002B31
:1007F0004FDB434981FB0321DA17C2EBA10202EB75
:100800008201A3EB410308A83E4902F051F9F2EE40
:10081000047A28EE278AFDEEC87A17EE903A002B6C
:10082000C0F28680364981FB0321DA17C2EBA102B0
:1008300002EB8201A3EB41030CA8324902F038F924
:100840000CAB08AA304910A802F032F9012110A817
:1008500000F03CFB2149184810AA02F029F916487B
:10086000FFF79AFE236897E71F708BE700910B460E
:100870001148264902F01CF90F48FFF78DFE44E7A6
:100880002348FFF789FE40E72248FFF785FE2368EB
:1008900082E7214A5B42A2FB0312D20802EB8201EB
:1008A000A3EB410308A81D4902F002F9AFE700BF1E
:1008B000D832000800440040EC010020D4010020A0
:1008C00000100140E0010020C8010020F8320008BB
:1008D0001433000868330008BC010020743300089A
:1008E000A8330008AC330008C4010020C001002078
:1008F000E8330008FC330008B88D06008033000898
:10090000676666663C34000844340008C433000857
:10091000943300081C340008CDCCCCCC3034000813
:10092000500000204728A3B767D81500917EFB3AF6
:10093000084A5B42A2FB0312D20802EB8201A3EB3E
:1009400041030CA8044902F0B3F879E70348FFF724
:1009500023FE90E6CDCCCCCC3034000834330008F4
:10096000414B984210B5044603D0404B98424FD0BB
:1009700010BD00221146252001F0AAFC4FF4406072
:1009800001F0F8FC41F2041001F0F4FC38484FF497
:100990000072072101F088FB35484FF4806207217F
:1009A00001F082FB32484FF400730122022101F072
:1009B00029FB2F484FF400730222002101F04EFB67
:1009C0002B484FF480630122022101F01BFB2848D1
:1009D0004FF480630222002101F040FB204601F029
:1009E0008BFE20464FF4E13101F0FEFE204604214B
:1009F00001F05AFF0821204601F050FF204601F087
:100A000047FF204640F20531BDE8104001F062BFCB
:100A100000221146472001F05BFC40F6024001F045
:100A2000A9FC41F2051001F0A5FC12484022082162
:100A300001F03AFB0F488022082101F035FB0D48F8
:100A400040230122022101F0DDFA0A48402302225C
:100A5000002101F003FB074880230122022101F05D
:100A6000D1FA04488023B5E700100140001401408A
:100A7000000002400008024000B541F2020085B0CB
:100A800001F078FC0E4801F009FD1420002341F22A
:100A90006702694602900A4801938DF80C30009273
:100AA00001F0CCFD012211461E2001F011FC0121B4
:100AB000034801F00DFE024801F004FE05B000BD40
:100AC00000080040F8B5164604467AB10F460025E6
:100AD0000621204601F0F6FE0028F9D0795D0135A7
:100AE0002046EDB201F0E6FEB542F1D306212046E4
:100AF00001F0E8FE0028F9D03046F8BD2DE9F04FAE
:100B00002A4CA04283B045D0A4F54844A04224D04A
:100B100004F54C44A04243D1DFF8A490DFF8A4B020
:100B2000234F002B3CD0CDE90012224C5D1E002645
:100B30004FF0010A4FF6FF783A78032A13D0A4F851
:100B400000A023889BB2002BFBD1013DADB24545EF
:100B5000F2D1304603B0BDE8F08FDFF86C90DFF8DB
:100B60006CB0154FDDE7B9F80030019E00989E4249
:100B700028BF1E463246594601F0BCFFB9F8002096
:100B800000215846FFF7EAFB4FF00003A9F80030B8
:100B90003B70D4E7DFF83890DFF838B0074FC0E794
:100BA0000026304603B0BDE8F08F00BF00100140C2
:100BB000900200208C020020960400209E06002057
:100BC0009202002094020020980400209C0400203F
:100BD000A0060020A4060020034A108013889BB2C0
:100BE000002BFBD1704700BF8C02002008B51B48CA
:100BF000012101F071FD00B908BD1848012101F083
:100C000077FD174A13889BB27BB9164A1378012BDC
:100C100012D0154A1378012BEED114490B880133F9
:100C20009BB2132B10D80B8008BD1388013B138097
:100C30000C4A1378012BECD10D490B8801339BB280
:100C4000132B06D80B80E4E70323002013700880E1
:100C500008BD0020032308801370DAE70008004075
:100C60008C0200209E0600209604002094040020A0
:100C70009C06002008B50F490F4801F037FE00B967
:100C800008BD0C490C4801F04BFE0B4801F016FE64
:100C90000A4A0B491388DFF830C00CF803000878C3
:100CA0000133012813801CBF01230B70054B002268
:100CB0001A8008BD0503050000100140A0060020B1
:100CC0009E0600209C060020A406002008B50E49C0
:100CD0000E4801F00BFE00B908BD0B490B4801F0AE
:100CE0001FFE0A4801F0EAFD094A0A491388DFF8A5
:100CF00028C00CF8030008780133012813801CBFBA
:100D000001230B7008BD00BF05030500004800402B
:100D100098040020960400209C04002008B50F4988
:100D20000F4801F0E3FD00B908BD0C490C4801F083
:100D3000F7FD0B4801F0C2FD0A4A0B491388DFF8A2
:100D400030C00CF8030008780133012813801CBF61
:100D500001230B70054B00221A8008BD0503050016
:100D60000014014092020020900200208E02002018
:100D70009402002070B54F4B4F4A064693E803009B
:100D800096B04E4B01908DF8081092E80300039046
:100D90008DF8101093E80300494B0790ADF8201030
:100DA00093E80300474A0092032405908DF8181039
:100DB0003222002109A8FFF7D1FA042269464248ED
:100DC000FFF780FE4FF47A730A223F4809A9FFF724
:100DD00095FE9DF82420FB2A04F1FF3306D013F082
:100DE000FF04E5D10025284616B070BD0324322249
:100DF000002109A8FFF7B2FA012E01A94FF0050260
:100E000008BF03A93048FFF75DFE4FF47A730A224A
:100E10002D4809A9FFF772FE9DF82420FA2A04F153
:100E2000FF3303D013F0FF04E1D1DBE79DF8255039
:100E3000012DF7D103243222002109A8FFF78EFAF1
:100E4000062207A92048FFF73DFE4FF47A730A22D5
:100E50001D4809A9FFF752FE9DF82420FA2A04F143
:100E6000FF3303D013F0FF04E5D1BBE79DF8254025
:100E7000032CF7D102E013F0FF04B3D0322200219B
:100E800009A8FFF76BFA052205A90F48FFF71AFE1C
:100E90004FF47A730A220C4809A9FFF72FFE9DF838
:100EA0002420FA2A04F1FF33E5D19DF82520092AF0
:100EB000E1D198E758340008B831000860340008E0
:100EC00068340008FE01FEFF0010014030B59DB0FF
:100ED000FC230C4605468DF80C30FFF7A1F9C2B291
:100EE000901C012329468DF80D0004A88DF80E30C2
:100EF00001928DF80F4001F0FDFD019A0348043284
:100F000003A9FFF7DFFD1DB030BD00BF0010014099
:100F100010B540F6014001F02DFA15484FF48072EB
:100F2000042101F0C1F812484FF40072042101F0CD
:100F3000BBF80F484FF480730122022101F062F8E0
:100F40000B484FF480730222012101F087F8084812
:100F50004FF400730122022101F054F8BDE8104063
:100F600003484FF400730222012101F077B800BF5B
:100F70000004024008B541F2150001F0FBF90A49EE
:100F80000A48002201F0CCF80022A02311460748AD
:100F900001F038F9054801F05DF9BDE80840034863
:100FA000012101F03BB900BFA086010000540040C0
:100FB00010B540F6054001F0DDF912480222042187
:100FC00001F072F80F480122042101F06DF80123AD
:100FD0001A460C48022101F015F8012319460A4867
:100FE000022201F03BF8022319460648012201F0D3
:100FF00009F80223BDE8104002481A46012101F019
:101000002DB800BF00140240000C024008B541F2A8
:10101000160001F0AFF90A490A48002201F080F8F1
:101020000022A0231146074801F0ECF8054801F022
:1010300011F9BDE808400348012101F0EFB800BFF5
:10104000A086010000580040F8B505460E464EF651
:10105000612403E0013CA4B2002C3BD040F20161CA
:10106000284601F00FF90028F4D1284601F0F8F8DD
:101070004EF6612402E0013CA4B25CB34FF4A061DF
:10108000284601F0FFF80028F5D031466FF0010244
:10109000284601F0D7F800264EF6612701E0BE424F
:1010A00009D040F20151284601F0ECF8013604461F
:1010B0000028F4D00124284601F0D8F84EF6612328
:1010C00000E03BB12A68013B12F4007F9BB2F8D1EB
:1010D0002046F8BD00242046F8BD00BF2DE9F043AE
:1010E000564C9946002383B005460F469046238010
:1010F0004EF6602640F20161284601F0C3F840B187
:10110000238801339BB2B3422380F3D903B0BDE8F7
:10111000F0830190284601F0A3F8019B23804EF64E
:1011200060264FF4A061284601F0ACF858B9238836
:1011300001339BB2B3422380F3D9284603B0BDE804
:10114000F04301F093B839466FF00102284601F0F0
:1011500079F84EF6612603E0013EB6B2002EECD0DF
:1011600040F20151284601F08DF80028F4D040F2F9
:101170000151284601F08EF8002323804EF66026A8
:1011800040F20751284601F07DF801280BD0238852
:1011900001339BB2B3422380F2D9284603B0BDE8A5
:1011A000F04301F063B84146284601F065F800239A
:1011B0004EF66026238040F20251284601F062F884
:1011C00058B9238801339BB2B3422380F3D9284610
:1011D00003B0BDE8F04301F049B84946284601F0A4
:1011E0004BF800234EF66026238040F20251284639
:1011F00001F048F858B9238801339BB2B3422380E9
:10120000F3D9284603B0BDE8F04301F02FB82846D3
:1012100001F02CF80023184623804EF661262A6838
:10122000920503F1010106D58BB2B3424FF00100E4
:10123000F5D123806AE70028FBD167E7A4080020E6
:101240002DE9F84F9C4CBDF828809B4600230546AD
:101250008946924623804EF6602640F20161284678
:1012600001F010F848B12288013292B2B2422280D5
:10127000F3D900273846BDE8F88FB8F1020F61D0E6
:10128000284600F0EDFF002323804EF660264FF441
:10129000A061284600F0F6FF48B9238801339BB2CD
:1012A000B3422380F3D9284600F0E0FFE1E76FF076
:1012B00001024946284600F0C5FF4EF6612603E0CC
:1012C000013EB6B2002EEED040F20151284600F0A9
:1012D000D9FF0028F4D040F20151284600F0DAFF8F
:1012E000002340F207512846238000F0CBFF01285D
:1012F0004EF6602607460DD0238801339BB2B342D9
:101300002380D0D840F20751284600F0BBFF0128C7
:101310000746F1D1284600F09DFF5146284600F0CF
:10132000ABFF002323804EF6602640F20251284690
:1013300000F0A8FF58B9238801339BB2B342238041
:10134000B1D8F2E70146284600F072FF98E7284638
:1013500000F086FF002323804EF660264FF4A06144
:10136000284600F08FFF30B9238801339BB2B34287
:10137000238098D8F2E749460122284600F062FF10
:10138000B8F1020F74D9002323804EF6602640F294
:101390000151284600F076FF38B9238801339BB20B
:1013A000B34223803FF67FAFF1E740F20151284678
:1013B00000F070FFB8F1010F56D0B8F1000F5CD00B
:1013C000B8F1030F4EF660263CD0B8F1020F40F2A0
:1013D0000651284619D000F055FF0028F5D02846C0
:1013E00000F04CFF5B4603F8010B9B4608F1FF330E
:1013F0001FFA83F8E1E7284600F038FF40F2065173
:10140000284600F03FFF0028E9D14FF00003238079
:1014100040F20251284600F035FF0028EBD1238826
:1014200001339BB2B34223803FF63DAFF0E700218A
:10143000284600F0F3FE40F20651284600F022FF55
:101440000028CCD14FF00003238040F202512846FF
:1014500000F018FF0028EAD1238801339BB2B34281
:1014600023803FF620AFF0E7284600F0FFFEA4E718
:101470000021284600F0D2FE85E74346A4F800800C
:101480004EF661222968890508F101000FD581B265
:10149000914288464FF00103F4D121802846012172
:1014A00000F0BCFE0121284600F0C2FEE2E6002B5F
:1014B000F4D0A4F80080F1E7A408002008B5FFF7F5
:1014C00027FDFFF757FDFFF773FDBDE80840FFF765
:1014D0009DBD00BF38B504460A480D46FFF7B4FD70
:1014E00020B909482946FFF7AFFD28B9054B207000
:1014F00025726360204638BD034B207025726360FF
:10150000204638BD0054004000580040FFF7E6BDBB
:101510002DE9F04782B05F4C9DF828809A46002361
:1015200005460F46914623804EF6602640F2016143
:10153000284600F0A7FE40B1238801339BB2B34296
:101540002380F3D902B0BDE8F0870190284600F06F
:1015500087FE019B23804EF660264FF4A06128464B
:1015600000F090FE58B9238801339BB2B342238028
:10157000F3D9284602B0BDE8F04700F077BE3946FF
:101580006FF00102284600F05DFE4EF6612603E092
:10159000013EB6B2002EECD040F20151284600F0D8
:1015A00071FE0028F4D040F20151284600F072FE8E
:1015B000002323804EF6602640F20751284600F0B3
:1015C00061FE01280BD0238801339BB2B3422380F4
:1015D000F2D9284602B0BDE8F04700F047BE4946C0
:1015E000284600F049FE002323804EF6602640F294
:1015F0000251284600F046FE58B9238801339BB2B9
:10160000B3422380F3D9284602B0BDE8F04700F08A
:101610002DBEB8F1000F25D008F1FF365AFA86F832
:101620000AF1FF374EF660263B46284613F8011FA5
:101630001F4600F021FE4FF00003238040F20251CC
:10164000284600F01FFE58B9238801339BB2B342ED
:101650002380F3D9284602B0BDE8F04700F006BE6B
:101660004745E1D1284600F001FE002318462380BB
:101670004EF661262A68920503F1010106D58BB268
:10168000B3424FF00100F5D123805BE70028FBD186
:1016900058E700BFA4080020BDF800C0CDF800C086
:1016A000FFF7CEBD2DE9F04F85B00C2A9DF838A08C
:1016B000904605460E469B4600F0C2800E2A40F03A
:1016C000A580922310270124022231462846FFF7E5
:1016D0001DFF4FF000090DF10F0304223146009465
:1016E00028468DF80F90FFF7D7FF9DF80F300422A2
:1016F00003F07F0331462846FFF708FF4B4622469A
:1017000031462846FFF702FF0DF10F030A2231464A
:10171000009428468DF80F90FFF7BEFF9DF80F301C
:101720000A2243F0800331462846FFF7EFFE5B466E
:10173000092231462846CDF800A0FFF7E9FE4346CE
:10174000224631462846FFF7E1FEB8F10C0F7AD069
:1017500047F001074FF448744FF00109013CCDF800
:1017600000900DF10E03042231462846A4B2FFF783
:1017700093FF002C4DD09DF80E303B42EED000235D
:101780008DF80F300D220DF10F033146CDF800908A
:101790002846FFF781FF9DF80F300D2203F07F03ED
:1017A00031462846FFF7B2FE0DF10E03CDF800904A
:1017B000062231462846FFF76FFF9DF80E3013F0E2
:1017C0001B0F3AD1B8F10C0F51D04FF00008012493
:1017D00000270DF10F03314600940C2228468DF8A6
:1017E0000F70FFF759FF9DF80F30314628460C2245
:1017F00043F08003FFF78AFE28463B4622463146E7
:10180000FFF784FE404605B0BDE8F08F8023002737
:1018100059E70DF10F030D223146CDF8009028460F
:101820008DF80F40FFF738FF9DF80F300D2203F0C1
:101830007F0331462846FFF769FE4FF00208C6E7EE
:10184000F72330273FE70DF10F03314600940D22B7
:1018500028468DF80F90FFF71FFF9DF80F300D22DF
:1018600043F0800331462846FFF750FE70E70DF144
:101870000E030A223146CDF800902846FFF70CFFF0
:101880000DF10D034246CDF8009031462846FFF792
:1018900003FF9DF80D209DF80E3002F007028DF831
:1018A0000D2072B9DA0010990A8073B901238DF8FE
:1018B0000E30009309220F9B31462846FFF7ECFEBD
:1018C00083E7591E02EBC102EDE7122B84BF1223FE
:1018D0008DF80E30EDE700BF30B50F2385B004461C
:1018E0000D460122FFF712FE294620463D23112214
:1018F000FFF70CFE294620461E232D22FFF706FE89
:101900002946204600232C22FFF700FE29462046C8
:101910008D232A22FFF7FAFD294620463E232B225B
:10192000FFF7F4FD2946204640231522FFF7EEFD80
:101930000123002100938DF80F100DF10F032946AC
:1019400033222046FFF7A8FE9DF80F302946204697
:10195000332203F07F03FFF7D9FD402315222946E8
:10196000204605B0BDE83040FFF7D0BD2DE9F0437B
:1019700085B0012700249146984605220DF10F03FA
:10198000009705460E468DF80F40FFF785FE9DF83F
:101990000F30052203F0FB0331462846FFF7B6FD62
:1019A00023463A4631462846FFF7B0FD0DF10F03B6
:1019B0000A223146009728468DF80F40FFF76CFE4B
:1019C0009DF80F300A2243F0800331462846FFF786
:1019D0009DFD4B46092231462846CDF80080FFF791
:1019E00097FD03233A4631462846FFF78FFDFF2433
:1019F0000DF10F030097052231462846FFF74CFEF4
:101A0000631E13F0FF0403D09DF80F305B07EFD582
:101A100001240C9B0094314622222846FFF73CFE0D
:101A20000C9B00942122234431462846FFF734FEC4
:101A300005B0BDE8F08300BF412A58D170B5082336
:101A400084B004460D461A46FFF760FD3D2311227F
:101A500029462046FFF75AFD8623172229462046AD
:101A6000FFF754FD7F23262229462046FFF74EFD2F
:101A70001E232D2229462046FFF748FD00232C2255
:101A800029462046FFF742FD8D232A22294620467B
:101A9000FFF73CFD01263E232B2229462046FFF777
:101AA00035FD0DF10E032946142200962046FFF75E
:101AB000F3FD9DF80E3013F0030102D0002004B0B6
:101AC00070BD0DF10F038DF80F10009629461422FA
:101AD0002046FFF7E1FD9DF80F30204614222946ED
:101AE00043F00303FFF712FD002004B070BD4FF078
:101AF000FF30704770B584B004460D460126FFF7ED
:101B0000EBFE00238DF80F3014220DF10F03294650
:101B100000962046FFF7C0FD9DF80F30142203F019
:101B2000FC0329462046FFF7F1FC0DF10E03294680
:101B3000009614222046FFF7AFFD9DF80E3013F0FB
:101B4000030107D041222946204604B0BDE8704079
:101B5000FFF772BF0DF10F038DF80F1000962946A5
:101B600014222046FFF798FD9DF80F3014222946D5
:101B700043F003032046FFF7C9FCE3E72DE9F047F4
:101B80008AB005AE012791464FF0000808229A4618
:101B90000097334604460D468DF81480FFF77CFD10
:101BA0009DF81430082203F0F70329462046FFF77A
:101BB000ADFC07230D2229462046FFF7A7FC33463C
:101BC00014222946009720468DF81480FFF764FD03
:101BD0009DF81430142243F0030329462046FFF7F2
:101BE00095FC0DF11203CDE90163009733462946B8
:101BF00020460C228DF81490FFF754FD18B9BDF85B
:101C00001230102B03D002200AB0BDE8F087BDF8D7
:101C10001430AAF800300AB0BDE8F0872DE9F0438F
:101C20008BB005AE4FF00108002733469146CDF842
:101C30000080082204460D468DF81470FFF72CFD35
:101C40009DF81430082203F0F70329462046FFF7D9
:101C50005DFC3B460D2229462046FFF757FC3346E4
:101C60000E222946CDF8008020468DF81470FFF72B
:101C700013FD9DF814300E2203F07F032946204601
:101C8000FFF744FC42F2930201963346ADF814206C
:101C900002260DF11202029200960C2229462046DD
:101CA000FFF700FD90B9059A9DF81860C9F800206B
:101CB000C2F307235340C2F307414B4083EA126348
:101CC000DBB2F61A18BF012606FA08F60123002235
:101CD00000938DF811200DF1110329460E222046A4
:101CE000FFF7DAFC9DF8113020460E22294643F01A
:101CF0008003FFF70BFC30460BB0BDE8F08300BF5C
:101D0000F0B51268C2F30723C2F3074653408BB005
:101D1000734083EA12638DF81A300DF11B0305AE90
:101D2000009347F29303CDF81620ADF814303246F5
:101D3000072304460D460DF11207FFF717FE012297
:101D4000002300928DF8123008223B462946204697
:101D5000FFF7A2FC9DF81230082203F0F703294692
:101D60002046FFF7D3FB09230093CDE901673346F3
:101D70000C2229462046FFF795FC38B9BDF8120021
:101D8000183818BF012040000BB0F0BD02200BB086
:101D9000F0BD00BF70B501F108060C460546F6B26D
:101DA00021462846FFF796FB2B780234E4B21BB994
:101DB000B442F5D1284670BD6868297AFFF79AFECB
:101DC000284670BD70B582B0164601AB522204465B
:101DD0000D46FFF7D3FE10B1002002B070BD3246B1
:101DE00029462046FFF71AFF0028F5D1324629463A
:101DF0002046FFF785FFC0F3400080F00100C0B22D
:101E000002B070BD10B58CB007AC0DF11E035022AE
:101E10000093ADF81C200223224605900491FFF7A1
:101E2000A5FD0DF11A0C04230093CDE9014CDDE969
:101E300004100C222346FFF735FC0CB010BD00BF88
:101E400070B501F108060C460546F6B22146284653
:101E5000FFF740FB2B780234E4B21BB9B442F5D152
:101E6000284670BD6C682E7A204631460023022237
:101E7000FFF74CFB2046FF2303223146FFF746FBCA
:101E8000284670BD70B501F108060C460546F6B24D
:101E900021462846FFF71EFB2B780234E4B21BB91B
:101EA000B442F5D1284670BD6868297AA223302251
:101EB000FFF72CFB284670BD00B50D238BB02C22FC
:101EC000CDE90210FFF722FB0623DDE90210002214
:101ED000009306ABFFF7E0FBBDF8183021499DF8F1
:101EE0001A005BBAC3F3072282F0FF029BB28A5C3E
:101EF0005A40D2B28A5C824215D09FED1B0ABDF8CF
:101F00001B309DF81D005BBAC3F3072282F0FF026D
:101F10009BB28A5C5A40D2B28A5C824214D0DFED16
:101F2000120A0BB000BD07EE903A9FED107ADFED7C
:101F3000106AF8EE677A67EE877A9FED0E7A87EE81
:101F4000A60A30EE470ADAE707EE903ADFED0A6AB2
:101F50009FED077AF8EE677A67EEA67AC7EE870AF2
:101F60000BB000BDC03100080000000000002F438E
:101F700000FF7F47000034420000C84210B504460D
:101F800040F6034000F0F6F941F2110000F0F2F9DA
:101F90001B482022072100F087F81948402207211A
:101FA00000F082F8164820230122022100F02AF8CE
:101FB000134820230222002100F050F8104840234B
:101FC0000122022100F01EF84023022200210C48C9
:101FD00000F044F8204600F08FFB20464FF4E1313A
:101FE00000F002FC2046042100F05EFC204608219F
:101FF00000F054FC2046BDE8104000F049BC00BF92
:10200000000C02402DE9F04305460E460168C06809
:1020100017461C464FF0000C01224FF0030802FA4D
:102020000CFE1EEA040F4FEA4C0E0CF1010C0DD011
:1020300008FA0EF306FA0EF921EA030120EA03007A
:1020400007FA0EFE49EA01014EEA0000BCF1100F4A
:10205000E5D12960E860BDE8F08300BFF0B5174620
:102060001A46436801290CBF134393434360064655
:1020700080684FF0000C012503244FEA4C0104FA5C
:1020800001FE05FA0CF320EA0E0E07FA01F11342E5
:1020900041EA0E010CF1010C18BF0846BCF1100F0B
:1020A000EBD1B060F0BD00BF2DE9F043046A0E46ED
:1020B000416A054600234FF001084FF00F0E4FEA2A
:1020C000830C0EFA0CF008FA03F724EA000006FA73
:1020D0000CFC17424CEA000C03F1010318BF6446E4
:1020E000082BECD14FF0000C4FF001094FF00F0816
:1020F00008FA0CF009FA03F721EA000006FA0CFED0
:1021000017424EEA000E03F1010318BF7146102B6F
:102110000CF1040CECD12C626962BDE8F08300BFC5
:1021200030B583B0044602200191154600F04CF909
:102130002F4B0199984221D82E4BA3FB00236268B4
:1021400022F03F0242EA934262602B4A91424FEAF8
:1021500093431DD85A1C312B18BF226201D1322360
:1021600023624900B0FBF1F10429E36938BF04217F
:10217000C1F30B011943E16103B030BD636823F083
:102180003F0343F0320363601B4B9942E7D932238C
:102190001A4A9142F0D81A4A4FF4967C0CFB03F38A
:1021A000A2FB03239B0901332362E369A5B923F44E
:1021B000804301EB4101E361B0FBF1F1C1F30B039B
:1021C0000BB941F00101E36943F40043E361E369C2
:1021D0000B43E36103B030BD43F4804301EB810165
:1021E00001EB8101E361B0FBF1F10B46E8E700BFD1
:1021F0007FF0FA0283DE1B43A0860100801A0600EE
:10220000D34D6210D0F800C0C3F309032CF0020CC8
:102210004CEA0101134301608360704703680129A0
:102220000CBF43F4806323F480630360704700BFF6
:10223000036819B943F400630360704723F4006333
:102240000360704702320CBF21F0010141F001012F
:1022500001617047036843F001030360704700BFEA
:10226000036843F480730360704700BF036843F45E
:1022700000730360704700BF016170470069C0B21E
:10228000704700BF8B0901F01F011858C84000F0CB
:102290000100704740F2015399420CD04FEA911C63
:1022A00001225CF8003001F01F018A4023EA02039A
:1022B0004CF800307047436983697047034B40F026
:1022C000BF6040F40030D860704700BF00ED00E010
:1022D000DFF898C0DCF80C3003F4E063B3F5E06F8E
:1022E00036D0DCF80C3003F4E063B3F5C06F1BD0DC
:1022F000DCF80C3003F4E063B3F5A06F10D0DCF829
:102300000C3003F4E063B3F5806F25D0DCF80C30BB
:1023100003F4E063B3F5407F22D0134BCCF80C30CC
:1023200002F00302022302E002F007020323DFF8B7
:1023300040C0994011430CEB00030901420983F8A6
:10234000001300F01F00012383404CF82230704737
:1023500002F00F020423EAE702F001020123E6E79C
:1023600000221346E3E700BF0005FA0500ED00E098
:1023700000E100E0830903F1804303F50E3300F030
:102380001F001968012282400A431A60704700BF8B
:10239000830903F1804303F50E3300F01F00196831
:1023A000012282400A431A60704700BF830903F18B
:1023B000804303F50E3300F01F001A6801218140AD
:1023C00022EA01021A60704710B5DFF8CCC08646D9
:1023D0009CE80F0088B008AC04E90F00DCE90401B8
:1023E000CDE90001CDE90201284AD2F80838C3F34B
:1023F0008103012B45D0022B2ED1D2F80408D2F84C
:102400000418D2F80438D2F80448C3F30143C1F3E6
:1024100088120133610200F03F0C4FEA43034CBFC6
:102420001B481C48B0FBFCF002FB00F0B0FBF3F0D3
:10243000164AD2F80838D2F80818D2F80828C3F398
:1024400003136B441B7C20FA03F3BEF1030F1AD86D
:10245000DFE80EF00A0C040F0E48E9E7C1F3822111
:102460006944087823FA00F008B010BD184608B097
:1024700010BDC2F342326A44107A23FA00F008B069
:1024800010BD0348D4E70020EEE700BF0030024053
:1024900040787D010024F400C032000808B5634B89
:1024A000984200F0A4801AD8A3F58053984200F017
:1024B000A8802FD8A3F5006398424AD003F5806323
:1024C00098426BD0B0F1804F7CD14FF40060FFF7A1
:1024D0005FFFBDE808404FF40060FFF767BF544B53
:1024E00098427AD049D8A3F58043984227D003F583
:1024F0008063984200F08F80A3F56443984261D1D5
:1025000040F60800FFF744FFBDE8084040F6080029
:10251000FFF74CBF474B984225D003F580639842A4
:1025200051D0A3F5006398424CD140F60400FFF768
:102530002FFFBDE8084040F60400FFF737BF4FF417
:102540001060FFF725FFBDE808404FF41060FFF76B
:102550002DBF40F60100FFF71BFFBDE8084040F625
:102560000100FFF723BF40F60500FFF711FFBDE8AC
:10257000084040F60500FFF719BF2F4B984217D0CF
:1025800003F5806398421DD140F61210FFF700FF5B
:10259000BDE8084040F61210FFF708BF40F6020001
:1025A000FFF7F6FEBDE8084040F60200FFF7FEBE6A
:1025B00040F61110FFF7ECFEBDE8084040F61110A0
:1025C000FFF7F4BE08BD40F60600FFF7E1FEBDE8E8
:1025D000084040F60600FFF7E9BE4FF41160FFF730
:1025E000D7FEBDE808404FF41160FFF7DFBE40F6AC
:1025F0000700FFF7CDFEBDE8084040F60700FFF7F3
:10260000D5BE40F60300FFF7C3FEBDE8084040F624
:102610000300FFF7CBBE40F60110FFF7B9FEBDE89F
:10262000084040F60110FFF7C1BE00BF001C00408B
:102630000040014000140040004401401F4B0A8844
:10264000826220F4806C9C450ED020F44063B3F18C
:10265000804F09D01A4B8A68C2629C4524D14369D5
:1026600043F001034361704702684B8822F0700217
:10267000026002681343036002688B88134303609F
:102680008B68C3620268CB8822F4407202600268E1
:1026900013430A4A03609445E1D10B7B036343690A
:1026A00043F00103436170470268CB8822F4407213
:1026B0000260026813430360D1E700BF00000140DD
:1026C00000100040036843F001030360704700BF3F
:1026D000C3680B43C3607047C26803690A4214BFF2
:1026E000012000200B4200F0010008BF00207047CD
:1026F000C9430161704700BF08B5384B98424DD0BF
:1027000016D8A3F53053984252D03AD8A3F50063B7
:10271000984222D003F5806398425DD140F61200C2
:10272000FFF736FEBDE8084040F61200FFF73EBE58
:102730002B4B984246D003F58063984217D0A3F5FF
:102740001843984248D140F61F00FFF721FEBDE82C
:10275000084040F61F00FFF729BE40F61100FFF7C2
:1027600017FEBDE8084040F61100FFF71FBE40F617
:102770000510FFF70DFEBDE8084040F60510FFF715
:1027800015BE184B984227D140F61400FFF700FE03
:10279000BDE8084040F61400FFF708BE40F61E00F2
:1027A000FFF7F6FDBDE8084040F61E00FFF7FEBD4E
:1027B00040F61300FFF7ECFDBDE8084040F61300BB
:1027C000FFF7F4BD40F60410FFF7E2FDBDE8084056
:1027D00040F60410FFF7EABD08BD00BF00780040D6
:1027E000001001400050004000B5264A904283B0DE
:1027F00003460DD02FD8A2F53052904208D03DD8D4
:10280000A2F50062904203D002F5806290422BD183
:102810000220CDE90031FFF7D7FDDDE90031D3F823
:102820000CC01CF4004F4FEA51020DD04FF6F07C63
:1028300002EB4002B2FBF1F2C2F3420102EA0C02E7
:102840000A439A6003B000BD1044B0FBF1F080B2BF
:10285000986003B000BD0C4A20F48060904205D01F
:10286000A2F514429342D3D00020D8E70320CDE94B
:102870000031FFF7A9FDDDE90031D0E7034A9042BE
:10288000C6D0F1E700780040001001400050004041
:10289000C36843F40053C360704700BFC36823F0AC
:1028A00008030B43C3607047C36823F004030B4362
:1028B000C3607047C1F30801416070474068C0F3CE
:1028C000080070478B0901F01F011858C84000F03C
:1028D000010070478A09012352F800C001F01F016E
:1028E0008B4043EA0C031350704700BFC1F38912B9
:1028F0008B0D52F800C01858C1F30442012303FAAB
:1029000002F201F01F01024203FA01F314BF012099
:10291000002013EA0C0F00F0010008BF00207047F0
:102920004FEA915C01225CF80030C1F304418A4017
:1029300023EA02034CF80030704700BF5749584B58
:10294000D1F8882042F4700282B0C1F88820D3F810
:10295000001841F00101C3F80018D3F8081800204E
:1029600041F08001C3F808180190019B4CF24F32EE
:10297000934205D8019B01330193019B9342F9D9FE
:102980004749D1F80838002043F09003C1F80838CF
:102990000190019B4CF24F32934205D8019B0133C9
:1029A0000193019B9342F9D93D493E4A0020C1F869
:1029B0000808D1F80838D1F8003823F0847323F4DC
:1029C0008033C1F80038C1F80428D1F8002822F477
:1029D0008022C1F80028C1F80C08D1F8002842F480
:1029E00080324FF6FF73C1F8002801E0013B03D0AD
:1029F000D1F800289003F9D5294BD3F80028920389
:102A00004AD5D3F840282849284842F08052C3F8D4
:102A100040280A6842F440420A60D3F80828C3F804
:102A20000828D3F8082842F40042C3F80828D3F84D
:102A3000082842F4A052C3F80828C3F80408D3F8C1
:102A4000002842F08072C3F80028D3F800289001D3
:102A5000FBD5154A136843F4803313605368D903D8
:102A6000FCD51368104943F4003313604B689A0394
:102A7000FCD50B4AD2F8083823F00303C2F8083813
:102A8000D2F8083843F00203C2F80838D2F8083800
:102A90001B07FBD502B07047FEE700BF00ED00E06A
:102AA00000300240103000240070004019544007EC
:102AB0000EB410B59DB01FAB029006906FF00041B0
:102AC0000A48079104910A4953F8042B0591002400
:102AD00002A9006801931B9400F07AF8029B1C7015
:102AE0001DB0BDE8104003B0704700BF00000020DB
:102AF0000802FFFF0A44914200F1FF3300D1704702
:102B000010B511F8014B03F8014F9142F9D110BDF6
:102B10002DE9F0478E681F46BE4282460C4690461D
:102B2000334653D8B1F90C0010F4906F2BD065697F
:102B30002368096905EB4505A3EB010905EBD5758C
:102B40007B1C6D104B44AB422A4684BF1D462A466F
:102B5000430527D511465046FDF778FC064658B385
:102B600021694A46FFF7C6FFA38923F4906343F027
:102B70008003A381266165614E44A5EB09052660AB
:102B8000A5603E463B461F4620683A46414600F057
:102B9000B7FAA3689B1BA36023683B442360002013
:102BA000BDE8F087504600F0C4FA06460028E1D19F
:102BB00021695046FDF7DCFB0C23CAF80030A389DD
:102BC00043F04003A3814FF0FF30E9E73E46DBE7E7
:102BD0002DE9F0471F468B891B069CB006460D4623
:102BE000144610D50B6973B94021FDF72FFC2860FE
:102BF000286130B90C2333604FF0FF301CB0BDE8C2
:102C0000F08740236B610023099320238DF829303E
:102C100003973023654F8DF82A304FF00108234683
:102C20001A7899461AB1252A03F10103F8D1B9EBB4
:102C3000040A0BD05346224629463046FFF768FF68
:102C4000013000F0A380099A5244099299F80030AB
:102C5000002B00F09B8000224FF0FF33CDE90532BE
:102C600009F10109049207928DF853201A924C46FB
:102C7000052214F8011B4D48FDF7DAFA049AD0B981
:102C8000D00644BF20238DF85330110744BF2B23B7
:102C90008DF8533099F800302A2B13D007994B4602
:102CA00000204FF00A0C1A78303A092A1C464AD9FB
:102CB000A8B1079113E0C01B08FA00F0104304907C
:102CC000A146D4E7039B191D1B680391002BBBBFD2
:102CD0005B4242F0020207930793B8BF0492237845
:102CE0002E2B0AD163782A2B32D1039B1A1D1B6825
:102CF000039243EAE37302340593DFF8C09021782E
:102D000003224846FDF794FA38B1049BA0EB090072
:102D100040228240134301340493217824488DF8E3
:102D200028100622FDF784FA002835D0214818BB68
:102D3000039B073323F0070308330393099B0344E2
:102D4000013409936BE701330CFB01210120AAE751
:102D500000230593611C18464FF00A0C0A78303A9C
:102D6000092A0C4603D9002BC7D00590C5E70131CD
:102D70000CFB00200123F1E703AB00932A460E4B26
:102D800004A93046AFF30080421CD7D1AB895B0663
:102D90003FF532AF099831E703AB00932A46064B63
:102DA00004A9304600F082F8EEE700BF6E34000858
:102DB0007834000800000000112B0008743400086B
:102DC0002DE9F047914698468A680B69089E934220
:102DD000B8BF1346C9F8003091F8432007460C46A7
:102DE00012B10133C9F800302368990642BFD9F8FF
:102DF00000300233C9F80030256815F0060507D108
:102E000004F1190AE368D9F800209B1AAB4229DCC7
:102E100094F843302268003B18BF012392062ED459
:102E200004F1430241463846B047013021D02368BF
:102E3000A168226903F00603042B01BFE568D9F8F5
:102E40000030ED1A25EAE57518BF00258B1A2B44D2
:102E50009142C8BF1D464FF000091A344D451AD1A2
:102E6000002008E00123524641463846B047013071
:102E700003D14FF0FF30BDE8F0870135C2E7E1181C
:102E80005A1C302081F84300224494F8451082F8FF
:102E900043100233C4E70123224641463846B04777
:102EA0000130E6D009F10109D8E700002DE9F0432F
:102EB00098460B7E85B0782B174606460C9A0C4632
:102EC00009D8622B01F1430108D8002B00F0DC8007
:102ED000582B00F0BD8004F1420539E0A3F16300F6
:102EE0001528F8D801A555F820F000BF452F000897
:102EF000592F0008D72E0008D72E0008D72E00081B
:102F0000D72E0008592F0008D72E0008D72E00080A
:102F1000D72E0008D72E000869300008852F00083A
:102F200017300008D72E0008D72E0008913000086F
:102F3000D72E0008852F0008D72E0008D72E0008AE
:102F40001F3000081368191D1B68116004F1420549
:102F500084F842300123A8E013682568181D10602A
:102F6000280601D51B6803E06A06FBD5B3F90030DB
:102F7000002B03DA2D225B4284F84320DFF878C16E
:102F80000A2213E02568106815F0800F50F8043B02
:102F900002D16D0648BF9BB21060227EDFF858C197
:102FA0006F2A5DD10822002084F843006568A5607F
:102FB000002D05DB20681D4320F00400206051D067
:102FC0000D46B3FBF2F002FB103E9A421CF80EE0F5
:102FD00005F801ED0346F4D9082A0BD12368DA0776
:102FE00008D5236962689A42DEBF302305F8013CA8
:102FF00005F1FF35491B2161CDF800803B4603AA4E
:1030000021463046FFF7DCFE013053D14FF0FF3050
:1030100005B0BDE8F083236843F020032360DFF8A8
:10302000DCC0782384F845302068156810F0800FE4
:1030300055F8043B03D110F0400F18BF9BB2156048
:10304000C50744BF40F02000206023B11022AAE74A
:10305000DFF8A4C0E6E7226822F020022260F5E74C
:103060000A22A0E70D46B7E71368D4F800C06069EC
:103070001D1D15601CF0800F1B6801D0186003E057
:103080001CF0400FFAD01880002323610D46B3E7EF
:103090001368191D11601D68626800212846FDF73C
:1030A000C7F808B1401B606063682361002384F89F
:1030B0004330A1E723692A4639463046C0470130EC
:1030C000A4D023689B0714D4E068039B9842B8BF40
:1030D00018469DE7012304F1190239463046C047DE
:1030E000013093D00135E36803995B1AAB42F1DC00
:1030F000EAE70025F7E700BF7F34000890340008B6
:10310000884210B501EB020402D98442234607D855
:10311000431EA14207D011F8012B03F8012FF8E755
:103120000244824200D110BD13F8011D02F8011DB6
:10313000F7E72DE9F041074615460C4621B9BDE8F1
:10314000F0411146FDF782B92AB9FDF711F92C4675
:103150002046BDE8F08100F01AF88542064602D804
:10316000B5EB500FF4D829463846FDF76FF9804685
:1031700008B94446ECE7B5422A46214628BF324604
:10318000FFF7B8FC21463846FDF7F2F8F1E751F8B1
:10319000043C181F002BBCBF0B58C0187047000020
:1031A000F8B500BFF8BC08BC9E467047F8B500BF34
:0831B000F8BC08BC9E46704704
:1031B800FD020100FF00000000316253C4F5A6972C
:1031C800B988DBEA7D4C1F2E4372211087B6E5D4FF
:1031D800FACB98A93E0F5C6D86B7E4D542732011EF
:1031E8003F0E5D6CFBCA99A8C5F4A79601306352DF
:1031F8007C4D1E2FB889DAEB3D0C5F6EF9C89BAA8F
:1032080084B5E6D7407122137E4F1C2DBA8BD8E9BE
:10321800C7F6A59403326150BB8AD9E87F4E1D2CAE
:1032280002336051C6F7A495F8C99AAB3C0D5E6F9E
:103238004170231285B4E7D67A4B1829BE8FDCED8E
:10324800C3F2A1900736655439085B6AFDCC9FAE7E
:1032580080B1E2D344752617FCCD9EAF38095A6B6E
:103268004574271681B0E3D2BF8EDDEC7B4A19285E
:1032780006376455C2F3A0914776251483B2E1D08E
:10328800FECF9CAD3A0B586904356657C0F1A2933E
:10329800BD8CDFEE79481B2AC1F0A392053467562E
:1032A80078491A2BBC8DDEEF82B3E0D1467724151E
:1032B8003B0A5968FFCE9DAC0000000000000000EA
:1032C80001020304060708090000000001020304C4
:1032D8005B424F4F545D2053747564794775617232
:1032E800642041205531502073746172740D0A00B6
:1032F8005B4932435D2053373D25642053353D25D6
:10330800642053383D25640D0A0000005B43325D9C
:1033180020696E6974206F6B2C206D6F64653D5455
:1033280045524D494E414C0D0A0000005B43325D49
:1033380020696E6974206661696C65642C20667208
:10334800616D6573207374696C6C207072696E743A
:1033580020746F20646562756720434F4D0D0A0025
:1033680048422C7531703D6F6B0000005B54585D0E
:103378002025730D0A0000005B53375D206E6F74C3
:1033880020666F756E640D0A000000005B53375DA0
:103398002072656164206661696C65640D0A0000CD
:1033A8004130310048554D414E2C736561743D25BF
:1033B800732C76616C75653D256400005B53375D41
:1033C800207261773D3078253032582064303D25B1
:1033D800642068756D616E3D25640D0A000000006B
:1033E8002530325825303258253032582530325859
:1033F80000000000524649442C736561743D2573F2
:103408002C636172643D25732C6576656E743D731B
:1034180063616E005B53385D206E6F7420666F7554
:103428006E640D0A000000002D256C642E256C6466
:1034380000000000256C642E256C6400454E562C57
:1034480074656D703D25732C68756D693D25730035
:10345800FD020102FF000000FD03033F2CFF0000F6
:10346800FD020901FF00232D302B2000686C4C0061
:10347800656667454647003031323334353637386C
:1034880039414243444546003031323334353637CA
:0C34980038396162636465660000000062
:0834A4007CCDFF7F0100000058
:0434AC0039030008D8
:0434B00011030008FC
:1034B400040000200000000070000020D80000205C
:1034C4004001002000000000000000000000000097
:1034D40000000000000000000000000000000000E8
:1034E40000000000000000000000000000000000D8
:1034F40000000000000000000000000000000000C8
:04350400FF000000C4
:04000005080001B13D
:00000001FF
